{
  "contractName": "DecentralisedUniversity",
  "abi": [
    {
      "constant": true,
      "inputs": [
        {
          "name": "",
          "type": "uint256"
        }
      ],
      "name": "students",
      "outputs": [
        {
          "name": "id",
          "type": "uint256"
        },
        {
          "name": "name",
          "type": "string"
        },
        {
          "name": "studentId",
          "type": "string"
        },
        {
          "name": "results",
          "type": "string"
        },
        {
          "name": "author",
          "type": "address"
        }
      ],
      "payable": false,
      "stateMutability": "view",
      "type": "function",
      "signature": "0x06ead22e"
    },
    {
      "constant": true,
      "inputs": [],
      "name": "name",
      "outputs": [
        {
          "name": "",
          "type": "string"
        }
      ],
      "payable": false,
      "stateMutability": "view",
      "type": "function",
      "signature": "0x06fdde03"
    },
    {
      "constant": true,
      "inputs": [],
      "name": "studentCount",
      "outputs": [
        {
          "name": "",
          "type": "uint256"
        }
      ],
      "payable": false,
      "stateMutability": "view",
      "type": "function",
      "signature": "0xe581f9ee"
    },
    {
      "inputs": [],
      "payable": false,
      "stateMutability": "nonpayable",
      "type": "constructor",
      "signature": "constructor"
    },
    {
      "anonymous": false,
      "inputs": [
        {
          "indexed": false,
          "name": "id",
          "type": "uint256"
        },
        {
          "indexed": false,
          "name": "name",
          "type": "string"
        },
        {
          "indexed": false,
          "name": "studentId",
          "type": "string"
        },
        {
          "indexed": false,
          "name": "results",
          "type": "string"
        },
        {
          "indexed": false,
          "name": "author",
          "type": "address"
        }
      ],
      "name": "StudentCreated",
      "type": "event",
      "signature": "0x52e7ca96d7ad74bc6247316fc9bffef7a2aef6c86e441f89f13aced736dc4513"
    },
    {
      "anonymous": false,
      "inputs": [
        {
          "indexed": false,
          "name": "id",
          "type": "uint256"
        },
        {
          "indexed": false,
          "name": "name",
          "type": "string"
        },
        {
          "indexed": false,
          "name": "studentId",
          "type": "string"
        },
        {
          "indexed": false,
          "name": "results",
          "type": "string"
        },
        {
          "indexed": false,
          "name": "author",
          "type": "address"
        }
      ],
      "name": "StudentUpdated",
      "type": "event",
      "signature": "0x536533da0cb4c8989fc1fdfccde704d7acb4a783f627c35c5d524d2b0beaf3f9"
    },
    {
      "constant": false,
      "inputs": [
        {
          "name": "_name",
          "type": "string"
        },
        {
          "name": "_studentId",
          "type": "string"
        },
        {
          "name": "_results",
          "type": "string"
        }
      ],
      "name": "createStudent",
      "outputs": [],
      "payable": false,
      "stateMutability": "nonpayable",
      "type": "function",
      "signature": "0xeabbf0c7"
    },
    {
      "constant": false,
      "inputs": [
        {
          "name": "_id",
          "type": "uint256"
        },
        {
          "name": "_results",
          "type": "string"
        }
      ],
      "name": "updateStudent",
      "outputs": [],
      "payable": false,
      "stateMutability": "nonpayable",
      "type": "function",
      "signature": "0xb9f02055"
    }
  ],
  "bytecode": "0x608060405260006001553480156200001657600080fd5b506040805190810160405280601881526020017f446563656e7472616c6973656420556e6976657273697479000000000000000081525060009080519060200190620000649291906200006b565b506200011a565b828054600181600116156101000203166002900490600052602060002090601f016020900481019282601f10620000ae57805160ff1916838001178555620000df565b82800160010185558215620000df579182015b82811115620000de578251825591602001919060010190620000c1565b5b509050620000ee9190620000f2565b5090565b6200011791905b8082111562000113576000816000905550600101620000f9565b5090565b90565b6111b2806200012a6000396000f3fe60806040526004361061006d576000357c0100000000000000000000000000000000000000000000000000000000900463ffffffff16806306ead22e1461007257806306fdde0314610238578063b9f02055146102c8578063e581f9ee1461039a578063eabbf0c7146103c5575b600080fd5b34801561007e57600080fd5b506100ab6004803603602081101561009557600080fd5b81019080803590602001909291905050506105bb565b604051808681526020018060200180602001806020018573ffffffffffffffffffffffffffffffffffffffff1673ffffffffffffffffffffffffffffffffffffffff168152602001848103845288818151815260200191508051906020019080838360005b8381101561012b578082015181840152602081019050610110565b50505050905090810190601f1680156101585780820380516001836020036101000a031916815260200191505b50848103835287818151815260200191508051906020019080838360005b83811015610191578082015181840152602081019050610176565b50505050905090810190601f1680156101be5780820380516001836020036101000a031916815260200191505b50848103825286818151815260200191508051906020019080838360005b838110156101f75780820151818401526020810190506101dc565b50505050905090810190601f1680156102245780820380516001836020036101000a031916815260200191505b509850505050505050505060405180910390f35b34801561024457600080fd5b5061024d6107d9565b6040518080602001828103825283818151815260200191508051906020019080838360005b8381101561028d578082015181840152602081019050610272565b50505050905090810190601f1680156102ba5780820380516001836020036101000a031916815260200191505b509250505060405180910390f35b3480156102d457600080fd5b50610398600480360360408110156102eb57600080fd5b81019080803590602001909291908035906020019064010000000081111561031257600080fd5b82018360208201111561032457600080fd5b8035906020019184600183028401116401000000008311171561034657600080fd5b91908080601f016020809104026020016040519081016040528093929190818152602001838380828437600081840152601f19601f820116905080830192505050505050509192919290505050610877565b005b3480156103a657600080fd5b506103af610d9a565b6040518082815260200191505060405180910390f35b3480156103d157600080fd5b506105b9600480360360608110156103e857600080fd5b810190808035906020019064010000000081111561040557600080fd5b82018360208201111561041757600080fd5b8035906020019184600183028401116401000000008311171561043957600080fd5b91908080601f016020809104026020016040519081016040528093929190818152602001838380828437600081840152601f19601f8201169050808301925050505050505091929192908035906020019064010000000081111561049c57600080fd5b8201836020820111156104ae57600080fd5b803590602001918460018302840111640100000000831117156104d057600080fd5b91908080601f016020809104026020016040519081016040528093929190818152602001838380828437600081840152601f19601f8201169050808301925050505050505091929192908035906020019064010000000081111561053357600080fd5b82018360208201111561054557600080fd5b8035906020019184600183028401116401000000008311171561056757600080fd5b91908080601f016020809104026020016040519081016040528093929190818152602001838380828437600081840152601f19601f820116905080830192505050505050509192919290505050610da0565b005b6002602052806000526040600020600091509050806000015490806001018054600181600116156101000203166002900480601f01602080910402602001604051908101604052809291908181526020018280546001816001161561010002031660029004801561066d5780601f106106425761010080835404028352916020019161066d565b820191906000526020600020905b81548152906001019060200180831161065057829003601f168201915b505050505090806002018054600181600116156101000203166002900480601f01602080910402602001604051908101604052809291908181526020018280546001816001161561010002031660029004801561070b5780601f106106e05761010080835404028352916020019161070b565b820191906000526020600020905b8154815290600101906020018083116106ee57829003601f168201915b505050505090806003018054600181600116156101000203166002900480601f0160208091040260200160405190810160405280929190818152602001828054600181600116156101000203166002900480156107a95780601f1061077e576101008083540402835291602001916107a9565b820191906000526020600020905b81548152906001019060200180831161078c57829003601f168201915b5050505050908060040160009054906101000a900473ffffffffffffffffffffffffffffffffffffffff16905085565b60008054600181600116156101000203166002900480601f01602080910402602001604051908101604052809291908181526020018280546001816001161561010002031660029004801561086f5780601f106108445761010080835404028352916020019161086f565b820191906000526020600020905b81548152906001019060200180831161085257829003601f168201915b505050505081565b60008211801561088957506001548211155b151561089457600080fd5b61089c61109b565b6002600084815260200190815260200160002060a0604051908101604052908160008201548152602001600182018054600181600116156101000203166002900480601f01602080910402602001604051908101604052809291908181526020018280546001816001161561010002031660029004801561095e5780601f106109335761010080835404028352916020019161095e565b820191906000526020600020905b81548152906001019060200180831161094157829003601f168201915b50505050508152602001600282018054600181600116156101000203166002900480601f016020809104026020016040519081016040528092919081815260200182805460018160011615610100020316600290048015610a005780601f106109d557610100808354040283529160200191610a00565b820191906000526020600020905b8154815290600101906020018083116109e357829003601f168201915b50505050508152602001600382018054600181600116156101000203166002900480601f016020809104026020016040519081016040528092919081815260200182805460018160011615610100020316600290048015610aa25780601f10610a7757610100808354040283529160200191610aa2565b820191906000526020600020905b815481529060010190602001808311610a8557829003601f168201915b505050505081526020016004820160009054906101000a900473ffffffffffffffffffffffffffffffffffffffff1673ffffffffffffffffffffffffffffffffffffffff1673ffffffffffffffffffffffffffffffffffffffff168152505090506000816080015190508282606001819052508160026000868152602001908152602001600020600082015181600001556020820151816001019080519060200190610b4f9291906110e1565b506040820151816002019080519060200190610b6c9291906110e1565b506060820151816003019080519060200190610b899291906110e1565b5060808201518160040160006101000a81548173ffffffffffffffffffffffffffffffffffffffff021916908373ffffffffffffffffffffffffffffffffffffffff1602179055509050507f536533da0cb4c8989fc1fdfccde704d7acb4a783f627c35c5d524d2b0beaf3f960015483602001518460400151856060015185604051808681526020018060200180602001806020018573ffffffffffffffffffffffffffffffffffffffff1673ffffffffffffffffffffffffffffffffffffffff168152602001848103845288818151815260200191508051906020019080838360005b83811015610c88578082015181840152602081019050610c6d565b50505050905090810190601f168015610cb55780820380516001836020036101000a031916815260200191505b50848103835287818151815260200191508051906020019080838360005b83811015610cee578082015181840152602081019050610cd3565b50505050905090810190601f168015610d1b5780820380516001836020036101000a031916815260200191505b50848103825286818151815260200191508051906020019080838360005b83811015610d54578082015181840152602081019050610d39565b50505050905090810190601f168015610d815780820380516001836020036101000a031916815260200191505b509850505050505050505060405180910390a150505050565b60015481565b60008351111515610db057600080fd5b60008251111515610dc057600080fd5b60008151111515610dd057600080fd5b60016000815480929190600101919050555060a06040519081016040528060015481526020018481526020018381526020018281526020013373ffffffffffffffffffffffffffffffffffffffff16815250600260006001548152602001908152602001600020600082015181600001556020820151816001019080519060200190610e5d9291906110e1565b506040820151816002019080519060200190610e7a9291906110e1565b506060820151816003019080519060200190610e979291906110e1565b5060808201518160040160006101000a81548173ffffffffffffffffffffffffffffffffffffffff021916908373ffffffffffffffffffffffffffffffffffffffff1602179055509050507f52e7ca96d7ad74bc6247316fc9bffef7a2aef6c86e441f89f13aced736dc451360015484848433604051808681526020018060200180602001806020018573ffffffffffffffffffffffffffffffffffffffff1673ffffffffffffffffffffffffffffffffffffffff168152602001848103845288818151815260200191508051906020019080838360005b83811015610f8a578082015181840152602081019050610f6f565b50505050905090810190601f168015610fb75780820380516001836020036101000a031916815260200191505b50848103835287818151815260200191508051906020019080838360005b83811015610ff0578082015181840152602081019050610fd5565b50505050905090810190601f16801561101d5780820380516001836020036101000a031916815260200191505b50848103825286818151815260200191508051906020019080838360005b8381101561105657808201518184015260208101905061103b565b50505050905090810190601f1680156110835780820380516001836020036101000a031916815260200191505b509850505050505050505060405180910390a1505050565b60a06040519081016040528060008152602001606081526020016060815260200160608152602001600073ffffffffffffffffffffffffffffffffffffffff1681525090565b828054600181600116156101000203166002900490600052602060002090601f016020900481019282601f1061112257805160ff1916838001178555611150565b82800160010185558215611150579182015b8281111561114f578251825591602001919060010190611134565b5b50905061115d9190611161565b5090565b61118391905b8082111561117f576000816000905550600101611167565b5090565b9056fea165627a7a723058204e7e3cc7c35890b9df297d98c59efe7739c2ae03b787ab7b4fe3cde6dce2f7c80029",
  "source": "pragma solidity ^0.5.0;\r\n\r\ncontract DecentralisedUniversity {\r\n    string public name;\r\n    uint public studentCount = 0;\r\n    mapping(uint => Student) public students;\r\n\r\n    struct Student {\r\n        uint id;\r\n        string name;\r\n        string studentId;\r\n        string results;\r\n        address author;\r\n    }\r\n\r\n    event StudentCreated(\r\n        uint id,\r\n        string name,\r\n        string studentId,\r\n        string results,\r\n        address author\r\n    );\r\n\r\n    event StudentUpdated(\r\n        uint id,\r\n        string name,\r\n        string studentId,\r\n        string results,\r\n        address author\r\n    );\r\n\r\n    constructor() public {\r\n        name = \"Decentralised University\";\r\n    }\r\n\r\n    function createStudent(string memory _name, string memory _studentId, string memory _results) public {\r\n        // Require valid content\r\n        require(bytes(_name).length > 0);\r\n        require(bytes(_studentId).length > 0);\r\n        require(bytes(_results).length > 0);\r\n        // Increment the student count\r\n        studentCount++;\r\n        // Create Student\r\n        students[studentCount] = Student(studentCount, _name, _studentId, _results, msg.sender);\r\n        // Trigger Event\r\n        emit StudentCreated(studentCount, _name, _studentId, _results, msg.sender);\r\n    }\r\n\r\n    function updateStudent(uint _id, string memory _results) public {\r\n        // Make sure the id is valid\r\n        require(_id > 0 && _id <= studentCount);\r\n        // Fetch student\r\n        Student memory _student = students[_id];\r\n        // Fetch author\r\n        address _author = _student.author;\r\n        // Update results\r\n        _student.results = _results;\r\n        // Submit results\r\n        students[_id] = _student;\r\n        emit StudentUpdated(studentCount, _student.name, _student.studentId, _student.results, _author);\r\n\r\n    }\r\n}",
  "sourcePath": "C:/Users/jaykc/WebstormProjects/decentralisedUniversity/src/contracts/DecentralisedUniversity.sol",
  "compiler": {
    "name": "solc",
    "version": "0.5.0+commit.1d4f565a.Emscripten.clang"
  },
  "schemaVersion": "3.0.2",
  "updatedAt": "2019-12-15T03:30:43.594Z",
  "devdoc": {
    "methods": {}
  },
  "userdoc": {
    "methods": {}
  }
}